{
    "_format": "hh-sol-artifact-1",
    "contractName": "TempNFT",
    "sourceName": "contracts/TempNFT.sol",
    "abi": [
        {
            "inputs": [
                {
                    "internalType": "uint256",
                    "name": "",
                    "type": "uint256"
                }
            ],
            "name": "NFTIds",
            "outputs": [
                {
                    "internalType": "uint256",
                    "name": "",
                    "type": "uint256"
                }
            ],
            "stateMutability": "view",
            "type": "function"
        },
        {
            "inputs": [
                {
                    "internalType": "uint256",
                    "name": "_globalId",
                    "type": "uint256"
                },
                {
                    "internalType": "uint256",
                    "name": "identifier",
                    "type": "uint256"
                },
                {
                    "internalType": "uint256",
                    "name": "num",
                    "type": "uint256"
                }
            ],
            "name": "borrowNFT",
            "outputs": [],
            "stateMutability": "payable",
            "type": "function"
        },
        {
            "inputs": [
                {
                    "internalType": "uint256",
                    "name": "_globalId",
                    "type": "uint256"
                }
            ],
            "name": "deList",
            "outputs": [],
            "stateMutability": "nonpayable",
            "type": "function"
        },
        {
            "inputs": [],
            "name": "getAllNFTIds",
            "outputs": [
                {
                    "internalType": "uint256[]",
                    "name": "",
                    "type": "uint256[]"
                }
            ],
            "stateMutability": "view",
            "type": "function"
        },
        {
            "inputs": [],
            "name": "getBorrowedNFT",
            "outputs": [
                {
                    "components": [
                        {
                            "internalType": "uint256",
                            "name": "NFTGlobalID",
                            "type": "uint256"
                        },
                        {
                            "internalType": "address payable",
                            "name": "borrowerAddress",
                            "type": "address"
                        },
                        {
                            "internalType": "address",
                            "name": "currentBorrowedNFT",
                            "type": "address"
                        },
                        {
                            "internalType": "uint256",
                            "name": "collateralPaid",
                            "type": "uint256"
                        },
                        {
                            "internalType": "uint256",
                            "name": "deadline",
                            "type": "uint256"
                        },
                        {
                            "internalType": "string",
                            "name": "borrowType",
                            "type": "string"
                        },
                        {
                            "internalType": "uint256",
                            "name": "borrowedFor",
                            "type": "uint256"
                        },
                        {
                            "internalType": "uint256",
                            "name": "walletBalance",
                            "type": "uint256"
                        }
                    ],
                    "internalType": "struct TempNFT.borrower",
                    "name": "",
                    "type": "tuple"
                }
            ],
            "stateMutability": "view",
            "type": "function"
        },
        {
            "inputs": [
                {
                    "internalType": "uint256",
                    "name": "_globalId",
                    "type": "uint256"
                }
            ],
            "name": "getNftFromGlobalId",
            "outputs": [
                {
                    "components": [
                        {
                            "internalType": "uint256",
                            "name": "globalID",
                            "type": "uint256"
                        },
                        {
                            "internalType": "uint256",
                            "name": "hourlyRate",
                            "type": "uint256"
                        },
                        {
                            "internalType": "uint256",
                            "name": "dailyRate",
                            "type": "uint256"
                        },
                        {
                            "internalType": "uint256",
                            "name": "tokenID",
                            "type": "uint256"
                        },
                        {
                            "internalType": "address",
                            "name": "owner",
                            "type": "address"
                        },
                        {
                            "internalType": "uint256",
                            "name": "maxBorrowTime",
                            "type": "uint256"
                        },
                        {
                            "internalType": "address",
                            "name": "NFTaddress",
                            "type": "address"
                        },
                        {
                            "internalType": "enum TempNFT.State",
                            "name": "stateOfNFT",
                            "type": "uint8"
                        },
                        {
                            "internalType": "uint256",
                            "name": "typeOfNft",
                            "type": "uint256"
                        },
                        {
                            "internalType": "uint256",
                            "name": "minimumCollateral",
                            "type": "uint256"
                        }
                    ],
                    "internalType": "struct TempNFT.NFTs",
                    "name": "",
                    "type": "tuple"
                }
            ],
            "stateMutability": "view",
            "type": "function"
        },
        {
            "inputs": [
                {
                    "internalType": "address",
                    "name": "_nft",
                    "type": "address"
                },
                {
                    "internalType": "uint256",
                    "name": "_hourlyRate",
                    "type": "uint256"
                },
                {
                    "internalType": "uint256",
                    "name": "_dailyRate",
                    "type": "uint256"
                },
                {
                    "internalType": "uint256",
                    "name": "_maxBorrowTimeInDays",
                    "type": "uint256"
                },
                {
                    "internalType": "uint256",
                    "name": "_minCollateral",
                    "type": "uint256"
                },
                {
                    "internalType": "uint256",
                    "name": "_tokenId",
                    "type": "uint256"
                }
            ],
            "name": "rentNFT",
            "outputs": [],
            "stateMutability": "nonpayable",
            "type": "function"
        },
        {
            "inputs": [
                {
                    "internalType": "uint256",
                    "name": "_globalId",
                    "type": "uint256"
                }
            ],
            "name": "returnNFT",
            "outputs": [],
            "stateMutability": "nonpayable",
            "type": "function"
        }
    ],
    "bytecode": "0x608060405234801561001057600080fd5b506136d2806100206000396000f3fe60806040526004361061007b5760003560e01c80637f02cafb1161004e5780637f02cafb1461012d5780638ca8142714610156578063b0cd2aa014610181578063d2b3bb87146101aa5761007b565b8063169890bf146100805780631b6b63191461009c5780632dbefa23146100d957806343be2d0314610104575b600080fd5b61009a60048036038101906100959190612c3a565b6101e7565b005b3480156100a857600080fd5b506100c360048036038101906100be9190612be8565b611110565b6040516100d091906131fa565b60405180910390f35b3480156100e557600080fd5b506100ee611134565b6040516100fb91906130fa565b60405180910390f35b34801561011057600080fd5b5061012b60048036038101906101269190612be8565b61118c565b005b34801561013957600080fd5b50610154600480360381019061014f9190612b5f565b6114e4565b005b34801561016257600080fd5b5061016b611c36565b60405161017891906131d8565b60405180910390f35b34801561018d57600080fd5b506101a860048036038101906101a39190612be8565b611ea0565b005b3480156101b657600080fd5b506101d160048036038101906101cc9190612be8565b6127ae565b6040516101de91906131bc565b60405180910390f35b8260006002811115610222577f4e487b7100000000000000000000000000000000000000000000000000000000600052602160045260246000fd5b6001600083815260200190815260200160002060060160149054906101000a900460ff16600281111561027e577f4e487b7100000000000000000000000000000000000000000000000000000000600052602160045260246000fd5b146102be576040517f08c379a00000000000000000000000000000000000000000000000000000000081526004016102b59061311c565b60405180910390fd5b600073ffffffffffffffffffffffffffffffffffffffff16600360003373ffffffffffffffffffffffffffffffffffffffff1673ffffffffffffffffffffffffffffffffffffffff16815260200190815260200160002060010160009054906101000a900473ffffffffffffffffffffffffffffffffffffffff1673ffffffffffffffffffffffffffffffffffffffff161461035957600080fd5b60008314156109ec5760646001600086815260200190815260200160002060010154836103869190613313565b61039091906132e2565b60016000868152602001908152602001600020600801546103b1919061328c565b3410156103bd57600080fd5b6102d160016000868152602001908152602001600020600701541415610556576001600085815260200190815260200160002060060160009054906101000a900473ffffffffffffffffffffffffffffffffffffffff1673ffffffffffffffffffffffffffffffffffffffff1663095ea7b33360016000888152602001908152602001600020600301546040518363ffffffff1660e01b81526004016104649291906130d1565b600060405180830381600087803b15801561047e57600080fd5b505af1158015610492573d6000803e3d6000fd5b505050506001600085815260200190815260200160002060060160009054906101000a900473ffffffffffffffffffffffffffffffffffffffff1673ffffffffffffffffffffffffffffffffffffffff166323b872dd303360016000898152602001908152602001600020600301546040518463ffffffff1660e01b815260040161051f93929190613019565b600060405180830381600087803b15801561053957600080fd5b505af115801561054d573d6000803e3d6000fd5b505050506106b9565b6001600085815260200190815260200160002060060160009054906101000a900473ffffffffffffffffffffffffffffffffffffffff1673ffffffffffffffffffffffffffffffffffffffff1663a22cb4653360016040518363ffffffff1660e01b81526004016105c89291906130a8565b600060405180830381600087803b1580156105e257600080fd5b505af11580156105f6573d6000803e3d6000fd5b505050506001600085815260200190815260200160002060060160009054906101000a900473ffffffffffffffffffffffffffffffffffffffff1673ffffffffffffffffffffffffffffffffffffffff1663f242432a3033600160008981526020019081526020016000206003015460016040518563ffffffff1660e01b81526004016106869493929190613050565b600060405180830381600087803b1580156106a057600080fd5b505af11580156106b4573d6000803e3d6000fd5b505050505b33600360003373ffffffffffffffffffffffffffffffffffffffff1673ffffffffffffffffffffffffffffffffffffffff16815260200190815260200160002060010160006101000a81548173ffffffffffffffffffffffffffffffffffffffff021916908373ffffffffffffffffffffffffffffffffffffffff1602179055506040518060400160405280600681526020017f686f75726c790000000000000000000000000000000000000000000000000000815250600360003373ffffffffffffffffffffffffffffffffffffffff1673ffffffffffffffffffffffffffffffffffffffff16815260200190815260200160002060050190805190602001906107c5929190612955565b5081600360003373ffffffffffffffffffffffffffffffffffffffff1673ffffffffffffffffffffffffffffffffffffffff168152602001908152602001600020600601819055506001600085815260200190815260200160002060060160009054906101000a900473ffffffffffffffffffffffffffffffffffffffff16600360003373ffffffffffffffffffffffffffffffffffffffff1673ffffffffffffffffffffffffffffffffffffffff16815260200190815260200160002060020160006101000a81548173ffffffffffffffffffffffffffffffffffffffff021916908373ffffffffffffffffffffffffffffffffffffffff160217905550603c80836108d29190613313565b6108dc9190613313565b426108e7919061328c565b600360003373ffffffffffffffffffffffffffffffffffffffff1673ffffffffffffffffffffffffffffffffffffffff168152602001908152602001600020600401819055506001600085815260200190815260200160002060080154600360003373ffffffffffffffffffffffffffffffffffffffff1673ffffffffffffffffffffffffffffffffffffffff168152602001908152602001600020600301819055506001600085815260200190815260200160002060000154600360003373ffffffffffffffffffffffffffffffffffffffff1673ffffffffffffffffffffffffffffffffffffffff16815260200190815260200160002060000181905550611072565b600160008581526020019081526020016000206002015482610a0e9190613313565b6001600086815260200190815260200160002060080154610a2f919061328c565b341015610a3b57600080fd5b6102d160016000868152602001908152602001600020600701541415610bd4576001600085815260200190815260200160002060060160009054906101000a900473ffffffffffffffffffffffffffffffffffffffff1673ffffffffffffffffffffffffffffffffffffffff1663095ea7b33060016000888152602001908152602001600020600301546040518363ffffffff1660e01b8152600401610ae29291906130d1565b600060405180830381600087803b158015610afc57600080fd5b505af1158015610b10573d6000803e3d6000fd5b505050506001600085815260200190815260200160002060060160009054906101000a900473ffffffffffffffffffffffffffffffffffffffff1673ffffffffffffffffffffffffffffffffffffffff166323b872dd303360016000898152602001908152602001600020600301546040518463ffffffff1660e01b8152600401610b9d93929190613019565b600060405180830381600087803b158015610bb757600080fd5b505af1158015610bcb573d6000803e3d6000fd5b50505050610d37565b6001600085815260200190815260200160002060060160009054906101000a900473ffffffffffffffffffffffffffffffffffffffff1673ffffffffffffffffffffffffffffffffffffffff1663a22cb4653360016040518363ffffffff1660e01b8152600401610c469291906130a8565b600060405180830381600087803b158015610c6057600080fd5b505af1158015610c74573d6000803e3d6000fd5b505050506001600085815260200190815260200160002060060160009054906101000a900473ffffffffffffffffffffffffffffffffffffffff1673ffffffffffffffffffffffffffffffffffffffff1663f242432a3033600160008981526020019081526020016000206003015460016040518563ffffffff1660e01b8152600401610d049493929190613050565b600060405180830381600087803b158015610d1e57600080fd5b505af1158015610d32573d6000803e3d6000fd5b505050505b6001600085815260200190815260200160002060060160009054906101000a900473ffffffffffffffffffffffffffffffffffffffff16600360003373ffffffffffffffffffffffffffffffffffffffff1673ffffffffffffffffffffffffffffffffffffffff16815260200190815260200160002060020160006101000a81548173ffffffffffffffffffffffffffffffffffffffff021916908373ffffffffffffffffffffffffffffffffffffffff16021790555033600360003373ffffffffffffffffffffffffffffffffffffffff1673ffffffffffffffffffffffffffffffffffffffff16815260200190815260200160002060010160006101000a81548173ffffffffffffffffffffffffffffffffffffffff021916908373ffffffffffffffffffffffffffffffffffffffff1602179055506040518060400160405280600581526020017f6461696c79000000000000000000000000000000000000000000000000000000815250600360003373ffffffffffffffffffffffffffffffffffffffff1673ffffffffffffffffffffffffffffffffffffffff1681526020019081526020016000206005019080519060200190610efa929190612955565b5081600360003373ffffffffffffffffffffffffffffffffffffffff1673ffffffffffffffffffffffffffffffffffffffff168152602001908152602001600020600601819055506018603c8084610f529190613313565b610f5c9190613313565b610f669190613313565b42610f71919061328c565b600360003373ffffffffffffffffffffffffffffffffffffffff1673ffffffffffffffffffffffffffffffffffffffff168152602001908152602001600020600401819055506001600085815260200190815260200160002060080154600360003373ffffffffffffffffffffffffffffffffffffffff1673ffffffffffffffffffffffffffffffffffffffff168152602001908152602001600020600301819055506001600085815260200190815260200160002060000154600360003373ffffffffffffffffffffffffffffffffffffffff1673ffffffffffffffffffffffffffffffffffffffff168152602001908152602001600020600001819055505b600160028111156110ac577f4e487b7100000000000000000000000000000000000000000000000000000000600052602160045260246000fd5b6001600086815260200190815260200160002060060160149054906101000a900460ff166002811115611108577f4e487b7100000000000000000000000000000000000000000000000000000000600052602160045260246000fd5b505050505050565b6000818154811061112057600080fd5b906000526020600020016000915090505481565b6060600080548060200260200160405190810160405280929190818152602001828054801561118257602002820191906000526020600020905b81548152602001906001019080831161116e575b5050505050905090565b803373ffffffffffffffffffffffffffffffffffffffff166001600083815260200190815260200160002060040160009054906101000a900473ffffffffffffffffffffffffffffffffffffffff1673ffffffffffffffffffffffffffffffffffffffff1614611231576040517f08c379a00000000000000000000000000000000000000000000000000000000081526004016112289061319c565b60405180910390fd5b6001600083815260200190815260200160002060060160009054906101000a900473ffffffffffffffffffffffffffffffffffffffff1673ffffffffffffffffffffffffffffffffffffffff1663095ea7b33360016000868152602001908152602001600020600301546040518363ffffffff1660e01b81526004016112b89291906130d1565b600060405180830381600087803b1580156112d257600080fd5b505af11580156112e6573d6000803e3d6000fd5b505050506001600083815260200190815260200160002060060160009054906101000a900473ffffffffffffffffffffffffffffffffffffffff1673ffffffffffffffffffffffffffffffffffffffff1663a22cb4653360016040518363ffffffff1660e01b815260040161135c9291906130a8565b600060405180830381600087803b15801561137657600080fd5b505af115801561138a573d6000803e3d6000fd5b505050506001600083815260200190815260200160002060060160009054906101000a900473ffffffffffffffffffffffffffffffffffffffff1673ffffffffffffffffffffffffffffffffffffffff166323b872dd303360016000878152602001908152602001600020600301546040518463ffffffff1660e01b815260040161141793929190613019565b600060405180830381600087803b15801561143157600080fd5b505af1158015611445573d6000803e3d6000fd5b50505050600280811115611482577f4e487b7100000000000000000000000000000000000000000000000000000000600052602160045260246000fd5b6001600084815260200190815260200160002060060160149054906101000a900460ff1660028111156114de577f4e487b7100000000000000000000000000000000000000000000000000000000600052602160045260246000fd5b50505050565b8560008173ffffffffffffffffffffffffffffffffffffffff166370a08231336040518263ffffffff1660e01b81526004016115209190612ffe565b60206040518083038186803b15801561153857600080fd5b505afa15801561154c573d6000803e3d6000fd5b505050506040513d601f19601f820116820180604052508101906115709190612c11565b141580611606575060008173ffffffffffffffffffffffffffffffffffffffff166370a08231336040518263ffffffff1660e01b81526004016115b39190612ffe565b60206040518083038186803b1580156115cb57600080fd5b505afa1580156115df573d6000803e3d6000fd5b505050506040513d601f19601f820116820180604052508101906116039190612c11565b14155b611645576040517f08c379a000000000000000000000000000000000000000000000000000000000815260040161163c9061315c565b60405180910390fd5b61164d6129db565b8681602001818152505085816040018181525050848160a00181815250508381610120018181525050878160c0019073ffffffffffffffffffffffffffffffffffffffff16908173ffffffffffffffffffffffffffffffffffffffff1681525050878160c0019073ffffffffffffffffffffffffffffffffffffffff16908173ffffffffffffffffffffffffffffffffffffffff16815250508281606001818152505060008160e00190600281111561172f577f4e487b7100000000000000000000000000000000000000000000000000000000600052602160045260246000fd5b90816002811115611769577f4e487b7100000000000000000000000000000000000000000000000000000000600052602160045260246000fd5b8152505060008054905081600001818152505033816080019073ffffffffffffffffffffffffffffffffffffffff16908173ffffffffffffffffffffffffffffffffffffffff16815250508060016000808054905081526020019081526020016000206000820151816000015560208201518160010155604082015181600201556060820151816003015560808201518160040160006101000a81548173ffffffffffffffffffffffffffffffffffffffff021916908373ffffffffffffffffffffffffffffffffffffffff16021790555060a0820151816005015560c08201518160060160006101000a81548173ffffffffffffffffffffffffffffffffffffffff021916908373ffffffffffffffffffffffffffffffffffffffff16021790555060e08201518160060160146101000a81548160ff021916908360028111156118dd577f4e487b7100000000000000000000000000000000000000000000000000000000600052602160045260246000fd5b021790555061010082015181600701556101208201518160080155905050600260003373ffffffffffffffffffffffffffffffffffffffff1673ffffffffffffffffffffffffffffffffffffffff168152602001908152602001600020600080549050908060018154018082558091505060019003906000526020600020016000909190919091505560008873ffffffffffffffffffffffffffffffffffffffff166370a08231336040518263ffffffff1660e01b81526004016119a19190612ffe565b60206040518083038186803b1580156119b957600080fd5b505afa1580156119cd573d6000803e3d6000fd5b505050506040513d601f19601f820116820180604052508101906119f19190612c11565b14611b11576102d1816101000181815250508773ffffffffffffffffffffffffffffffffffffffff1663095ea7b330856040518363ffffffff1660e01b8152600401611a3e9291906130d1565b600060405180830381600087803b158015611a5857600080fd5b505af1158015611a6c573d6000803e3d6000fd5b505050508773ffffffffffffffffffffffffffffffffffffffff166323b872dd3330866040518463ffffffff1660e01b8152600401611aad93929190613019565b600060405180830381600087803b158015611ac757600080fd5b505af1158015611adb573d6000803e3d6000fd5b50505050600080805490509080600181540180825580915050600190039060005260206000200160009091909190915055611c2c565b610483816101000181815250508773ffffffffffffffffffffffffffffffffffffffff1663a22cb4653060016040518363ffffffff1660e01b8152600401611b5a9291906130a8565b600060405180830381600087803b158015611b7457600080fd5b505af1158015611b88573d6000803e3d6000fd5b505050508773ffffffffffffffffffffffffffffffffffffffff1663f242432a33308660016040518563ffffffff1660e01b8152600401611bcc9493929190613050565b600060405180830381600087803b158015611be657600080fd5b505af1158015611bfa573d6000803e3d6000fd5b505050506000808054905090806001815401808255809150506001900390600052602060002001600090919091909150555b5050505050505050565b611c3e612a92565b600073ffffffffffffffffffffffffffffffffffffffff16600360003373ffffffffffffffffffffffffffffffffffffffff1673ffffffffffffffffffffffffffffffffffffffff16815260200190815260200160002060020160009054906101000a900473ffffffffffffffffffffffffffffffffffffffff1673ffffffffffffffffffffffffffffffffffffffff161415611cda57611e9c565b600360003373ffffffffffffffffffffffffffffffffffffffff1673ffffffffffffffffffffffffffffffffffffffff16815260200190815260200160002060405180610100016040529081600082015481526020016001820160009054906101000a900473ffffffffffffffffffffffffffffffffffffffff1673ffffffffffffffffffffffffffffffffffffffff1673ffffffffffffffffffffffffffffffffffffffff1681526020016002820160009054906101000a900473ffffffffffffffffffffffffffffffffffffffff1673ffffffffffffffffffffffffffffffffffffffff1673ffffffffffffffffffffffffffffffffffffffff1681526020016003820154815260200160048201548152602001600582018054611dff90613465565b80601f0160208091040260200160405190810160405280929190818152602001828054611e2b90613465565b8015611e785780601f10611e4d57610100808354040283529160200191611e78565b820191906000526020600020905b815481529060010190602001808311611e5b57829003601f168201915b50505050508152602001600682015481526020016007820154815250509050611e9d565b5b90565b8060016002811115611edb577f4e487b7100000000000000000000000000000000000000000000000000000000600052602160045260246000fd5b6001600083815260200190815260200160002060060160149054906101000a900460ff166002811115611f37577f4e487b7100000000000000000000000000000000000000000000000000000000600052602160045260246000fd5b14611f77576040517f08c379a0000000000000000000000000000000000000000000000000000000008152600401611f6e9061313c565b60405180910390fd5b6001600083815260200190815260200160002060060160009054906101000a900473ffffffffffffffffffffffffffffffffffffffff1673ffffffffffffffffffffffffffffffffffffffff16600360003373ffffffffffffffffffffffffffffffffffffffff1673ffffffffffffffffffffffffffffffffffffffff16815260200190815260200160002060020160009054906101000a900473ffffffffffffffffffffffffffffffffffffffff1673ffffffffffffffffffffffffffffffffffffffff161461207d576040517f08c379a00000000000000000000000000000000000000000000000000000000081526004016120749061317c565b60405180910390fd5b6102d160016000848152602001908152602001600020600701541415612216576001600083815260200190815260200160002060060160009054906101000a900473ffffffffffffffffffffffffffffffffffffffff1673ffffffffffffffffffffffffffffffffffffffff1663095ea7b33060016000868152602001908152602001600020600301546040518363ffffffff1660e01b81526004016121249291906130d1565b600060405180830381600087803b15801561213e57600080fd5b505af1158015612152573d6000803e3d6000fd5b505050506001600083815260200190815260200160002060060160009054906101000a900473ffffffffffffffffffffffffffffffffffffffff1673ffffffffffffffffffffffffffffffffffffffff166323b872dd333060016000878152602001908152602001600020600301546040518463ffffffff1660e01b81526004016121df93929190613019565b600060405180830381600087803b1580156121f957600080fd5b505af115801561220d573d6000803e3d6000fd5b50505050612379565b6001600083815260200190815260200160002060060160009054906101000a900473ffffffffffffffffffffffffffffffffffffffff1673ffffffffffffffffffffffffffffffffffffffff1663a22cb4653060016040518363ffffffff1660e01b81526004016122889291906130a8565b600060405180830381600087803b1580156122a257600080fd5b505af11580156122b6573d6000803e3d6000fd5b505050506001600083815260200190815260200160002060060160009054906101000a900473ffffffffffffffffffffffffffffffffffffffff1673ffffffffffffffffffffffffffffffffffffffff1663f242432a3330600160008781526020019081526020016000206003015460016040518563ffffffff1660e01b81526004016123469493929190613050565b600060405180830381600087803b15801561236057600080fd5b505af1158015612374573d6000803e3d6000fd5b505050505b600060028111156123b3577f4e487b7100000000000000000000000000000000000000000000000000000000600052602160045260246000fd5b6001600084815260200190815260200160002060060160149054906101000a900460ff16600281111561240f577f4e487b7100000000000000000000000000000000000000000000000000000000600052602160045260246000fd5b5050600073ffffffffffffffffffffffffffffffffffffffff16600360003373ffffffffffffffffffffffffffffffffffffffff1673ffffffffffffffffffffffffffffffffffffffff16815260200190815260200160002060020160009054906101000a9050505042600360003373ffffffffffffffffffffffffffffffffffffffff1673ffffffffffffffffffffffffffffffffffffffff1681526020019081526020016000206004015410156125e2576000610e10600360003373ffffffffffffffffffffffffffffffffffffffff1673ffffffffffffffffffffffffffffffffffffffff1681526020019081526020016000206004015442612515919061336d565b61251f91906132e2565b905060006001600085815260200190815260200160002060010154826125459190613313565b600360003373ffffffffffffffffffffffffffffffffffffffff1673ffffffffffffffffffffffffffffffffffffffff16815260200190815260200160002060030154612592919061336d565b90503373ffffffffffffffffffffffffffffffffffffffff166108fc829081150290604051600060405180830381858888f193505050501580156125da573d6000803e3d6000fd5b50505061266c565b3373ffffffffffffffffffffffffffffffffffffffff166108fc600360003373ffffffffffffffffffffffffffffffffffffffff1673ffffffffffffffffffffffffffffffffffffffff168152602001908152602001600020600301549081150290604051600060405180830381858888f1935050505015801561266a573d6000803e3d6000fd5b505b60405180602001604052806000815250600360003373ffffffffffffffffffffffffffffffffffffffff1673ffffffffffffffffffffffffffffffffffffffff16815260200190815260200160002060050190805190602001906126d1929190612955565b506000600360003373ffffffffffffffffffffffffffffffffffffffff1673ffffffffffffffffffffffffffffffffffffffff168152602001908152602001600020600601819055506000600360003373ffffffffffffffffffffffffffffffffffffffff1673ffffffffffffffffffffffffffffffffffffffff168152602001908152602001600020600401819055506000600360003373ffffffffffffffffffffffffffffffffffffffff1673ffffffffffffffffffffffffffffffffffffffff168152602001908152602001600020600301819055505050565b6127b66129db565b6001600083815260200190815260200160002060405180610140016040529081600082015481526020016001820154815260200160028201548152602001600382015481526020016004820160009054906101000a900473ffffffffffffffffffffffffffffffffffffffff1673ffffffffffffffffffffffffffffffffffffffff1673ffffffffffffffffffffffffffffffffffffffff168152602001600582015481526020016006820160009054906101000a900473ffffffffffffffffffffffffffffffffffffffff1673ffffffffffffffffffffffffffffffffffffffff1673ffffffffffffffffffffffffffffffffffffffff1681526020016006820160149054906101000a900460ff1660028111156128fe577f4e487b7100000000000000000000000000000000000000000000000000000000600052602160045260246000fd5b6002811115612936577f4e487b7100000000000000000000000000000000000000000000000000000000600052602160045260246000fd5b8152602001600782015481526020016008820154815250509050919050565b82805461296190613465565b90600052602060002090601f01602090048101928261298357600085556129ca565b82601f1061299c57805160ff19168380011785556129ca565b828001600101855582156129ca579182015b828111156129c95782518255916020019190600101906129ae565b5b5090506129d79190612b03565b5090565b60405180610140016040528060008152602001600081526020016000815260200160008152602001600073ffffffffffffffffffffffffffffffffffffffff16815260200160008152602001600073ffffffffffffffffffffffffffffffffffffffff16815260200160006002811115612a7e577f4e487b7100000000000000000000000000000000000000000000000000000000600052602160045260246000fd5b815260200160008152602001600081525090565b60405180610100016040528060008152602001600073ffffffffffffffffffffffffffffffffffffffff168152602001600073ffffffffffffffffffffffffffffffffffffffff16815260200160008152602001600081526020016060815260200160008152602001600081525090565b5b80821115612b1c576000816000905550600101612b04565b5090565b600081359050612b2f8161366e565b92915050565b600081359050612b4481613685565b92915050565b600081519050612b5981613685565b92915050565b60008060008060008060c08789031215612b7857600080fd5b6000612b8689828a01612b20565b9650506020612b9789828a01612b35565b9550506040612ba889828a01612b35565b9450506060612bb989828a01612b35565b9350506080612bca89828a01612b35565b92505060a0612bdb89828a01612b35565b9150509295509295509295565b600060208284031215612bfa57600080fd5b6000612c0884828501612b35565b91505092915050565b600060208284031215612c2357600080fd5b6000612c3184828501612b4a565b91505092915050565b600080600060608486031215612c4f57600080fd5b6000612c5d86828701612b35565b9350506020612c6e86828701612b35565b9250506040612c7f86828701612b35565b9150509250925092565b6000612c958383612fe0565b60208301905092915050565b612caa816133b3565b82525050565b612cb9816133a1565b82525050565b612cc8816133a1565b82525050565b6000612cd982613225565b612ce38185613248565b9350612cee83613215565b8060005b83811015612d1f578151612d068882612c89565b9750612d118361323b565b925050600181019050612cf2565b5085935050505092915050565b612d35816133c5565b82525050565b612d448161340e565b82525050565b612d5381613420565b82525050565b6000612d6482613230565b612d6e818561326a565b9350612d7e818560208601613432565b612d8781613553565b840191505092915050565b6000612d9f600d8361327b565b9150612daa82613564565b602082019050919050565b6000612dc260118361327b565b9150612dcd8261358d565b602082019050919050565b6000612de5601d8361327b565b9150612df0826135b6565b602082019050919050565b6000612e08602a8361327b565b9150612e13826135df565b604082019050919050565b6000612e2b60158361327b565b9150612e368261362e565b602082019050919050565b6000612e4e600083613259565b9150612e5982613657565b600082019050919050565b61014082016000820151612e7b6000850182612fe0565b506020820151612e8e6020850182612fe0565b506040820151612ea16040850182612fe0565b506060820151612eb46060850182612fe0565b506080820151612ec76080850182612cb0565b5060a0820151612eda60a0850182612fe0565b5060c0820151612eed60c0850182612cb0565b5060e0820151612f0060e0850182612d3b565b50610100820151612f15610100850182612fe0565b50610120820151612f2a610120850182612fe0565b50505050565b600061010083016000830151612f496000860182612fe0565b506020830151612f5c6020860182612ca1565b506040830151612f6f6040860182612cb0565b506060830151612f826060860182612fe0565b506080830151612f956080860182612fe0565b5060a083015184820360a0860152612fad8282612d59565b91505060c0830151612fc260c0860182612fe0565b5060e0830151612fd560e0860182612fe0565b508091505092915050565b612fe981613404565b82525050565b612ff881613404565b82525050565b60006020820190506130136000830184612cbf565b92915050565b600060608201905061302e6000830186612cbf565b61303b6020830185612cbf565b6130486040830184612fef565b949350505050565b600060a0820190506130656000830187612cbf565b6130726020830186612cbf565b61307f6040830185612fef565b61308c6060830184612d4a565b818103608083015261309d81612e41565b905095945050505050565b60006040820190506130bd6000830185612cbf565b6130ca6020830184612d2c565b9392505050565b60006040820190506130e66000830185612cbf565b6130f36020830184612fef565b9392505050565b600060208201905081810360008301526131148184612cce565b905092915050565b6000602082019050818103600083015261313581612d92565b9050919050565b6000602082019050818103600083015261315581612db5565b9050919050565b6000602082019050818103600083015261317581612dd8565b9050919050565b6000602082019050818103600083015261319581612dfb565b9050919050565b600060208201905081810360008301526131b581612e1e565b9050919050565b6000610140820190506131d26000830184612e64565b92915050565b600060208201905081810360008301526131f28184612f30565b905092915050565b600060208201905061320f6000830184612fef565b92915050565b6000819050602082019050919050565b600081519050919050565b600081519050919050565b6000602082019050919050565b600082825260208201905092915050565b600082825260208201905092915050565b600082825260208201905092915050565b600082825260208201905092915050565b600061329782613404565b91506132a283613404565b9250827fffffffffffffffffffffffffffffffffffffffffffffffffffffffffffffffff038211156132d7576132d6613497565b5b828201905092915050565b60006132ed82613404565b91506132f883613404565b925082613308576133076134c6565b5b828204905092915050565b600061331e82613404565b915061332983613404565b9250817fffffffffffffffffffffffffffffffffffffffffffffffffffffffffffffffff048311821515161561336257613361613497565b5b828202905092915050565b600061337882613404565b915061338383613404565b92508282101561339657613395613497565b5b828203905092915050565b60006133ac826133e4565b9050919050565b60006133be826133e4565b9050919050565b60008115159050919050565b60008190506133df8261365a565b919050565b600073ffffffffffffffffffffffffffffffffffffffff82169050919050565b6000819050919050565b6000613419826133d1565b9050919050565b600061342b82613404565b9050919050565b60005b83811015613450578082015181840152602081019050613435565b8381111561345f576000848401525b50505050565b6000600282049050600182168061347d57607f821691505b6020821081141561349157613490613524565b5b50919050565b7f4e487b7100000000000000000000000000000000000000000000000000000000600052601160045260246000fd5b7f4e487b7100000000000000000000000000000000000000000000000000000000600052601260045260246000fd5b7f4e487b7100000000000000000000000000000000000000000000000000000000600052602160045260246000fd5b7f4e487b7100000000000000000000000000000000000000000000000000000000600052602260045260246000fd5b6000601f19601f8301169050919050565b7f4e467420617661696c61626c6500000000000000000000000000000000000000600082015250565b7f4e4674206e6f7420617661696c61626c65000000000000000000000000000000600082015250565b7f6f6e6c79206f776e65722063616e2072656e74207468656972204e4654000000600082015250565b7f596f752073686f756c64206861766520626f72726f77656420746865206e667460008201527f20746f2072657475726e00000000000000000000000000000000000000000000602082015250565b7f796f7520617265206e6f7420746865206f776e65720000000000000000000000600082015250565b50565b6003811061366b5761366a6134f5565b5b50565b613677816133a1565b811461368257600080fd5b50565b61368e81613404565b811461369957600080fd5b5056fea26469706673582212200fb1fd01d8740a2480ba6cc6169b753a03eb941840132dc4096924d15ab6472a64736f6c63430008040033",
    "linkReferences": {},
    "deployedLinkReferences": {}
}